{
  "contractName": "Dbank",
  "abi": [
    {
      "inputs": [],
      "payable": true,
      "stateMutability": "payable",
      "type": "constructor"
    },
    {
      "anonymous": false,
      "inputs": [
        {
          "indexed": false,
          "internalType": "address",
          "name": "accAddress",
          "type": "address"
        },
        {
          "indexed": false,
          "internalType": "uint256",
          "name": "amount",
          "type": "uint256"
        }
      ],
      "name": "depositMade",
      "type": "event"
    },
    {
      "constant": true,
      "inputs": [
        {
          "internalType": "address",
          "name": "",
          "type": "address"
        }
      ],
      "name": "Balance",
      "outputs": [
        {
          "internalType": "uint256",
          "name": "",
          "type": "uint256"
        }
      ],
      "payable": false,
      "stateMutability": "view",
      "type": "function"
    },
    {
      "constant": true,
      "inputs": [],
      "name": "totalAccount",
      "outputs": [
        {
          "internalType": "uint256",
          "name": "",
          "type": "uint256"
        }
      ],
      "payable": false,
      "stateMutability": "view",
      "type": "function"
    },
    {
      "constant": false,
      "inputs": [],
      "name": "initAccount",
      "outputs": [
        {
          "internalType": "uint256",
          "name": "",
          "type": "uint256"
        }
      ],
      "payable": true,
      "stateMutability": "payable",
      "type": "function"
    },
    {
      "constant": false,
      "inputs": [
        {
          "internalType": "uint256",
          "name": "amount",
          "type": "uint256"
        }
      ],
      "name": "deposit",
      "outputs": [
        {
          "internalType": "uint256",
          "name": "",
          "type": "uint256"
        }
      ],
      "payable": true,
      "stateMutability": "payable",
      "type": "function"
    },
    {
      "constant": false,
      "inputs": [
        {
          "internalType": "uint256",
          "name": "amount",
          "type": "uint256"
        }
      ],
      "name": "withDraw",
      "outputs": [
        {
          "internalType": "uint256",
          "name": "",
          "type": "uint256"
        }
      ],
      "payable": true,
      "stateMutability": "payable",
      "type": "function"
    },
    {
      "constant": true,
      "inputs": [
        {
          "internalType": "address",
          "name": "a",
          "type": "address"
        }
      ],
      "name": "getBalance",
      "outputs": [
        {
          "internalType": "uint256",
          "name": "",
          "type": "uint256"
        }
      ],
      "payable": false,
      "stateMutability": "view",
      "type": "function"
    }
  ],
  "bytecode": "0x6080604052670de0b6b3a76400006002556000600155610298806100246000396000f3fe6080604052600436106100555760003560e01c806314174f331461005a578063239fcf0f146100895780634ec1ce21146100bc578063b6b55f25146100c4578063f8b2cb4f146100e1578063ffdc61f714610114575b600080fd5b6100776004803603602081101561007057600080fd5b5035610129565b60408051918252519081900360200190f35b34801561009557600080fd5b50610077600480360360208110156100ac57600080fd5b50356001600160a01b03166101a2565b6100776101b4565b610077600480360360208110156100da57600080fd5b50356101d2565b3480156100ed57600080fd5b506100776004803603602081101561010457600080fd5b50356001600160a01b0316610242565b34801561012057600080fd5b5061007761025d565b3360009081526020819052604081205482111561014557600080fd5b3360008181526020819052604080822080548690039055600254905190850280156108fc0292909190818181858888f1935050505015801561018b573d6000803e3d6000fd5b505033600090815260208190526040902054919050565b60006020819052908152604090205481565b33600090815260208190526040902034815560018054810190555490565b60008082116101e057600080fd5b33600081815260208181526040918290208054860190558151928352820184905280517f14558f60a55f03caac2b3dabdda0b51b20b0e22ce09a2c28cd1dc18e873578e89281900390910190a150503360009081526020819052604090205490565b6001600160a01b031660009081526020819052604090205490565b6001548156fea265627a7a723158204fe0d1780d2912a5322419e9ffcd7577014641f2afbd14b22ae278d6fa7ad45d64736f6c634300050c0032",
  "source": "pragma solidity^0.5.0;\n\ncontract Dbank{\n\n    // Balance will store the deposit ether of each address\n    mapping(address=>uint256) public Balance;\n    event depositMade(address accAddress, uint256 amount);\n    uint256 public totalAccount;\n    uint256  convertor = 1000000000000000000;\n\n\n    constructor () public payable{\n        totalAccount = 0;\n\n    }\n    \n    function initAccount() public payable returns(uint256){\n        Balance[msg.sender]=msg.value;\n        totalAccount++;\n        return(Balance[msg.sender]);\n    }\n    \n    function deposit ( uint256 amount) public payable returns (uint256){\n        \n        require(amount>0);\n       Balance[msg.sender] += amount;\n       \n       emit  depositMade(msg.sender,amount);\n       return Balance[msg.sender];\n    }\n     \n    function withDraw(uint256 amount) public payable returns(uint256){\n\n        require(amount<=Balance[msg.sender]);\n        Balance[msg.sender]-=amount;\n        msg.sender.transfer(amount*convertor);\n    \n        return(Balance[msg.sender]);\n\t}\n\n    function getBalance(address a) public view returns(uint256){\n        return Balance[a];\n    }\n\n\n}\n",
  "sourcePath": "/root/Blockchain/2/contracts/Dbank.sol",
  "compiler": {
    "name": "solc",
    "version": "0.5.12+commit.7709ece9.Emscripten.clang"
  },
  "schemaVersion": "3.0.19",
  "updatedAt": "2019-12-26T08:25:35.920Z",
  "networkType": "ethereum",
  "devdoc": {
    "methods": {}
  },
  "userdoc": {
    "methods": {}
  }
}